:1000000000000120910100007F0300008103000037
:100010008303000085030000870300000000000048
:100020000000000000000000000000008903000044
:100030008B030000000000008D0300008F03000010
:100040009103000093030000950300009703000054
:10005000990300009B0300009D0300009F03000024
:10006000A1030000A3030000A5030000A7030000F4
:10007000A9030000AB030000AD030000AF030000C4
:10008000B1030000B3030000B5030000BD1F000072
:10009000D505000041090000BD030000BF030000BA
:1000A000C1030000C3030000C50300006522000077
:1000B000A5220000CB030000CD030000CF03000009
:1000C000D1030000D3030000D5030000D7030000D4
:1000D000D9030000DB030000DD030000DF030000A4
:1000E000E1030000E3030000E5030000E703000074
:1000F000E9030000EB030000ED030000EF03000044
:10010000F1030000F3030000F5030000F703000013
:10011000F9030000FB030000FD030000FF030000E3
:1001200001040000030400000504000007040000AF
:10013000090400000B0400000D0400000F0400007F
:10014000110400001304000015040000170400004F
:10015000190400001B0400001D0400001F0400001F
:1001600021040000230400002504000027040000EF
:10017000290400002B0400002D0400002F040000BF
:100180003104000033040000000000000000000003
:100190004FF0000BDFF8BE020068DFF8B612096806
:1001A00001F0030100F01C00142801D14BF0020BF8
:1001B000002901D04BF0010BBBF1000F05D0A7487F
:1001C000A749DFF8722200F09FF8A64880470BF09D
:1001D000020ABAF1000F0CD0DFF86E02DFF86E12DF
:1001E00002680B680FB44FF000024FF0FF0302608B
:1001F0000B609D484FF000024FF00103022808D128
:10020000DFF83A120A60DFF83E120A60DFF83212B5
:100210000B60012808D1DFF82A120A60DFF82612E5
:100220000A60DFF81A120B609048002809D1904844
:100230009049914A00F030F890489149914A00F075
:100240002BF891489149924A00F026F8914892493A
:10025000DFF8E22100F058F8BBF1000F10D08F4812
:100260008F49DFF8D62100F04FF80BF0020ABAF1FF
:10027000000F05D00FBC02600B6000BFAFF3008021
:10028000DFF820020FF2030E00474FF000004FF09E
:100290000001DFF814F2FEE72DE9F841884225D08D
:1002A000B2EB010200D5FEE740EA010313F00303BD
:1002B00002D000F01DF819E04FF000039046121133
:1002C000F7D09A421CBFF0C8F0C103F10103F8D186
:1002D00008F00F08B8F1000F08D004780C7000F196
:1002E000010001F10101B8F10108F6D1BDE8F88182
:1002F00008B54FF0000303780B7000F1010001F125
:100300000101013AF7D108BD884237D000F0030659
:10031000002E14D04FF00405A5EB06044FF008079B
:1003200007FB06F8914669FA08F9002C07D080F817
:10033000009069FA07F900F10100013CF5E74FF080
:1003400000060F46091A88460911914614461546BB
:10035000B14206D018BFA0E8340206F10106B1424E
:10036000F8D108F00F08B8F1000F07D002704FEA7B
:10037000322200F10100B8F10108F4E77047FEE70E
:10038000FEE7FEE7FEE7FEE7FEE7FEE7FEE7FEE745
:10039000FEE7FEE7FEE7FEE7FEE7FEE7FEE7FEE735
:1003A000FEE7FEE7FEE7FEE7FEE7FEE7FEE7FEE725
:1003B000FEE7FEE7FEE7FEE7FEE7FEE7FEE7FEE715
:1003C000FEE7FEE7FEE7FEE7FEE7FEE7FEE7FEE705
:1003D000FEE7FEE7FEE7FEE7FEE7FEE7FEE7FEE7F5
:1003E000FEE7FEE7FEE7FEE7FEE7FEE7FEE7FEE7E5
:1003F000FEE7FEE7FEE7FEE7FEE7FEE7FEE7FEE7D5
:10040000FEE7FEE7FEE7FEE7FEE7FEE7FEE7FEE7C4
:10041000FEE7FEE7FEE7FEE7FEE7FEE7FEE7FEE7B4
:10042000FEE7FEE7FEE7FEE7FEE7FEE7FEE7FEE7A4
:10043000FEE7FEE7704700000000A2A2A2A2008033
:100440000340088003401080034030800340348024
:1004500003403880034018080240000000F00020EC
:100460000000012045230000000000000000000003
:10047000000000000000000090010000B004000037
:10048000B004000070330000703300000000002052
:10049000F0000020F0000020D0040020D004002054
:1004A00000F00020D13200000D31000000000000FB
:1004B00010B5054C237833B9044B13B10448AFF39E
:1004C00000800123237010BDF00000200000000018
:1004D0005033000008B5034B1BB103490348AFF389
:1004E000008008BD00000000F40000205033000030
:1004F00001607047006870470EB503FA01F303EA24
:10050000020301686FEA020201EA020141EA030103
:1005100001600EBD006800EA020020FA01F0704799
:1005200001807047008870470EB503FA01F303EAB3
:10053000020301886FEA020201EA020141EA0301B3
:1005400001800EBD008800EA020020FA01F0704729
:1005500001707047007870470EB503FA01F303EAA3
:10056000020301786FEA020201EA020141EA030193
:1005700001700EBD007800EA020020FA01F0704719
:100580000122044982400B899BB223EA02030B81BA
:10059000704700BF003004400023F0B50C4DC2F39B
:1005A0008F0400F10806A34206D3094C22F003038E
:1005B0000830934206D3F0BD55F8267041F82370F9
:1005C0000133F0E714F82050CD540133F1E700BFB8
:1005D00000300440684620F007018D462DE9F147C0
:1005E000A74B85B09A7AD2B28DF807205A8892B27A
:1005F000ADF808209A8892B2ADF80A2093F86030DE
:100600005A0709D54FF480129E4BC3F8802105B0DC
:10061000BDE8F147854670479DF807309B0702D536
:10062000994B1B6A98479DF80730DF0702D5964B18
:10063000DB6998479DF807309E0608D5904BDA7A1B
:100640000022DA724FF480128E4BC3F880219DF89D
:1006500007305D0717D50022894B9A73D97A41F08C
:100660002101D97289490A709A725A8A92B242F06B
:1006700080025A825A8A22F004021204120C5A8210
:10068000814B9B699847BDF80830DC0710D50022E4
:100690007B4B9A735A8A500740F1858002205A8A10
:1006A00022F004021204120C5A82774B9B6898477E
:1006B000BDF8083023F001031B041B0C002B40F095
:1006C000A180BDF80A3023F001031B041B0C002B92
:1006D00098D00124BDF80A70DFF8A491DFF8B0814A
:1006E000DFF8A4A1BFB2002F8CD07F0858D0FA0742
:1006F00056D5220102F1804505F58625B5F806613B
:1007000016F0040608D00126B5F8063123F00403DC
:100710001B041B0CA5F80631B5F806315B0609D59C
:10072000B5F8063146F0020623F040031B041B0C0B
:10073000A5F80631B5F806311807B5F8063148BFF7
:1007400046F00406D9072BD50023039309EB0203D7
:10075000B3F808319BB2039358F824309A79002AF1
:1007600040F09880039A62B19969039A2046FFF796
:1007700013FF58F82430039A03999A621A6A0A44BC
:100780001A622046FFF7FCFEB5F80631314623F029
:1007900001031B041B0CA5F80631DAF8003098475A
:1007A0000134E4B29FE7588A10F010000AD1374AAA
:1007B000117801F0FF0489B11178012916D1324B6B
:1007C0001B6974E75A8A92B242F080025A82588AB0
:1007D0002D4BC0439B6800F0010068E75B8AD90796
:1007E0007FF566AF284B20469B6860E71278022AA7
:1007F00006D15B8ADA077FF55BAF234BDB6856E7F0
:1008000000BE55E701242746BDF808501C4EDFF80E
:100810007880ADB2002D3FF454AF6D082DD0EB07BA
:100820002BD5230103F1804303F58623B3F802118E
:1008300011F0040108D00121B3F8022122F00402D2
:100840001204120CA3F80221B3F80221900609D574
:10085000B3F8022141F0020122F020021204120C2E
:10086000A3F80221F38807FA04F29BB223EA0203F9
:10087000F3802046D8F8043098470134E4B2C9E741
:100880000030044000E100E000000020B003002040
:10089000B4030020B5F80621120539D5DB792046CE
:1008A0001B0103F1804303F58623D3F8042222F0D1
:1008B0000102C3F80422B5F80631C3F30E03A5F80C
:1008C0000631FFF75DFE58F82430DA7909EB0212A1
:1008D000D2F808129A698A1A1A62039B53B1039AD2
:1008E000FFF75AFE58F82430039A03999A621A6A5D
:1008F0000A441A62DAF80030314620469847B5F8C3
:10090000063123F001031B041B0CA5F8063147E751
:100910002046FFF735FE58F824300399DA791301A1
:1009200003F1804309EB0212C2F80C1203F586238F
:10093000D3F8042242F00102C3F8042230E700BFDA
:10094000684620F007018D462DE9F1430025A846B1
:10095000764C84B0D4F80032DFF8E091744E029304
:10096000029B4BB94FF40012724BC3F8802104B0C4
:10097000BDE8F14385467047029BD90740F18E8060
:10098000EBB21B0103F1804303F58623D3F8042265
:1009900022F00102C3F80422D3F8042202F0F0028C
:1009A0008DF807209DF80700D3F804220009C2F350
:1009B00040028DF80620D3F80422D20518D5D3F8CA
:1009C000042222F48072C3F80422030103F180435D
:1009D00003F58623B3F80621D70707D5B3F8062118
:1009E00022F001021204120CA3F806214FF0400875
:1009F0009DF80630012B72D1020102F1804202F50E
:100A00008622B2F80231D90407D5B2F8023123F4B4
:100A100080531B041B0CA2F80231474B53F820C033
:100A20009CF8073004EB0313D3F8083203930399BF
:100A3000DCF81830B2F802E1CB1A1EF4806FBCF873
:100A40000810CCF8203004D18B4240D8CCF82830A4
:100A50001DE0DCF81070012F06D18B42F6D3B3FBFA
:100A6000F1F001FB1033F1E78B422DD9B3FBF1FE1E
:100A700001FB1E3EBEF1000F15D0CCF828E0DCF8DB
:100A800028E0BEFBF1FC01FB1CE101B96BB9B2F837
:100A900002319BB243F00103A2F80231029B0135FF
:100AA0005B0802935CE7CCF82810B2F80231DB0750
:100AB000FBD40122E38882409BB223EA0203E38055
:100AC000736841469847E9E7CCF82830D7E7B3FB8D
:100AD000F1F001FB1033002B08BF0B46B6E79DF881
:100AE0000630002BDAD1FFF74BFD59F82020D379DF
:100AF00004EB0313D3F80832039303999369C91ADB
:100B0000030103F1804303F58623B3F806C11162A4
:100B10001CF4006F08D19162B3F8062122F00102A3
:100B20001204120CA3F806213368CAE7003004400F
:100B30000000002000E100E09C030020B40300203E
:100B40000378F0B5002B71D08369002B6ED0990724
:100B500000D500BE01780B0103F1804303F5862325
:100B6000B3F802219207FBD40122314C8A40E58878
:100B70002A4392B2E28045880289AA4256D8426A44
:100B8000AA4253D82B4D866945F821008579012D5D
:100B900028D1C17904EB0114C4F808620D01017B6E
:100BA000022914D1B3F8022192B242F48052A3F880
:100BB0000221C369C4F80C3205F1804303F5862392
:100BC000D3F8042242F00102C3F80422F0BDB3F8C6
:100BD000021121F480510904090CA3F80211C4F890
:100BE0000C22E9E7354622F00307374401F1080CEF
:100BF000AF4211D10E4D22F003040831A24210D8A9
:100C0000016A82620A440262B3F8022192B242F09F
:100C10000102A3F80221D9E755F804EB44F82CE0CF
:100C2000E6E7375D013405F82170E7E700BECDE760
:100C3000003004409C03002070B500019DF8105066
:100C400000F1804404F58624D4F804622D01EDB24D
:100C50003543C4F80452D4F804525B0245EA410516
:100C6000C4F80452D4F8041203F4C06341EA8201C8
:100C7000C4F80412D4F804221343C4F80432059BC8
:100C8000C4F80832D4F8043243F00803C4F804323C
:100C900070BD000037B5427804460078012A14BFC1
:100CA00001210221C8B16388B3FBF1F3072B0EDDEC
:100CB0004749DB088873002113F0010F01F101059A
:100CC00066D0434B41EA0211C9B283F86210A3888F
:100CD0003F49DB088873A1F86430012A3C495AD1A6
:100CE000B1F8423382409BB223EA0203A1F84233B7
:100CF00020780301D8B125896A0718D1227D013AED
:100D0000D1B21E2913D891B203F1804202F5862296
:100D1000A2F80011B2F80011C90201F47841A2F85A
:100D20000011B2F8001189B20D43A2F8005103F18D
:100D3000804303F58623B3F8022192B242F04002C9
:100D4000A3F80221A279012A18D1217B02292CD1F2
:100D5000B3F8021189B241F48061A3F80211B3F82B
:100D6000021189B241F48051A3F80211A369012153
:100D7000CDE900030323E079FFF75EFF0123144A66
:100D80002078D18883400B439BB2D38003B030BD21
:100D900029465B0890E732B90123B1F8422383402A
:100DA00013439BB2A2E700BEA2E7B3F8022122F4EC
:100DB00080621204120CA3F80221B3F8022122F47B
:100DC00080521204120CA3F802210022CEE700BFC9
:100DD0000030044037B5427804460078012A14BF39
:100DE00001210221C8B16388B3FBF1F3072B0EDDAB
:100DF0004B49DB088873002113F0010F01F1010555
:100E00006ED0474B41EA0211C9B283F86310A38840
:100E10004349DB088873A1F86630012A404962D152
:100E2000B1F8403382409BB223EA0203A1F8403379
:100E300020780301D8B12589CDB16A0717D1227D69
:100E40001F2A14D8013A91B203F1804202F586229A
:100E5000A2F80411B2F80411C90201F47841A2F811
:100E60000411B2F8041189B20D43A2F8045103F140
:100E7000804303F58623B3F8062192B242F0800244
:100E8000A3F80621B3F8062122F001021204120C85
:100E9000A3F80621A279012A18D1217B02292CD19D
:100EA000B3F8061189B241F40061A3F80611B3F852
:100EB000061189B241F40051A3F80611A36900217B
:100EC000CDE900030323E079FFF7B6FE0123144ABE
:100ED0002078118983400B439BB2138103B030BD4E
:100EE00029465B0888E732B90123B1F840238340E3
:100EF00013439BB29AE700BE9AE7B3F8062122F4A7
:100F000000621204120CA3F80621B3F8062122F4A1
:100F100000521204120CA3F806210022CEE700BFF3
:100F20000030044070470000054AD37A43F00203C2
:100F3000D372044BDA781A710622DA70704700BF58
:100F400000300440CC020020014B1A79DA7070475F
:100F5000CC020020012930B41CD82C231F4A03FBEB
:100F600000239C79012C05D11A6ADB699A4211D0C1
:100F700000BE0FE01C7B022C2DD1D3E90745A54212
:100F80000ED30CD11C69012C04D19C6A14B11B89AD
:100F90009C4205D230BC124B1B681B69184700BE2F
:100FA0002C2101FB00239C699D6A2C449C61002438
:100FB0009C62D3E907439C4200D200BE30BC01FBD7
:100FC0000020D0E907329B1A0289934294BF436202
:100FD0004262FFF7B5BD9A6A5B6AC7E7E801002085
:100FE0009403002011F01E0F70B4224A39D12C2333
:100FF00003FB00239C79012C33D01C7B022C2CD1C9
:10100000D3E907451E69012E23D1A5421ED21C89B2
:101010009B6AA34225D32C2101FB00239C699D6A76
:101020002C449C61D3E907439C4200D200BE70BCB3
:1010300001FB0020D0E907329B1A0289934294BF3A
:10104000436242620023836200F0F2BD09D000BE19
:10105000E1E7A54205D0DED3F9E71C899B6AA342EC
:10106000F5D870BC2C2303FB0022034B126A1B68CB
:101070005B6918470C01002094030020002210B582
:10108000094C0A4B22806280094AA0711070042228
:10109000DA7200F0CDFC074A537843F040035370F6
:1010A0000223E37010BD00BFCC020020E801002045
:1010B000DC02002000300440014B1860704700BF84
:1010C00098030020014B1860704700BF9403002074
:1010D000000100F1804000F58620B0F802319BB29B
:1010E00043F00803A0F802317047000100F180408E
:1010F00000F58620B0F806319BB243F01003A0F84B
:10110000063170470022064B4FF480611A701A7343
:101110009A610822598118815A6200F06DBD00BFA2
:10112000E80100200022064B1A629A621A89C3E97C
:1011300006018A4294BF5A625962184600F068BD9F
:10114000E80100204FF44072042000230D4910B53F
:101150004A800D4A0B80D0720C4A0B7352780C4CAB
:1011600082F010024020C2F300128A712380638053
:10117000A380E380FFF7C6FF2046BDE810400821AA
:10118000FFF7D0BFCC020020E8010020003004406F
:10119000C402002038B510F00303214C12D0002205
:1011A000204B1A805A809A80DA801F4B1B689B69FB
:1011B00003B19847042308211A48E372BDE8384078
:1011C000FFF7B0BFE27A062A28D1D4E90725954275
:1011D0000FD2A06AA169521B0144A1612189204656
:1011E0008A4294BF62626162A362BDE8384000F047
:1011F00083BD0D4B1B689B6903B1984704220023F4
:101200000848E272094AC4E90733A36263620380B3
:1012100043808380C38008219373CFE738BD00BF2C
:10122000E8010020C40200209403002000300440A4
:10123000F8B510F003050646264C12D00022264BC6
:101240001A805A809A80DA80244B1B68DB6903B1CC
:101250009847042308212048E372BDE8F840FFF7CF
:1012600061BF204600F07EFDE37A072B30D1D4E940
:1012700007138B421A4F12D1184B1B68DB690BB155
:101280003046984700231448BB7303804380838013
:10129000C3800423E372482308217B82DDE70DD25B
:1012A00040227A82C91A2389A069994228BF194627
:1012B000A36A61621844A061A562CEE7064B1D8057
:1012C0005D809D80DD800423E37260237B82F8BD16
:1012D00000BEFCE7E8010020C402002094030020C7
:1012E000003004400022064B1A629A621A89C3E950
:1012F00006018A4294BF5A625962184600F0FCBC4B
:10130000E80100207FB50023A14DCDE90133A14CB8
:1013100050B1042208212046EA7223806380A38012
:10132000E380FFF7FFFE6FE0284600F01BFD6B6ACD
:10133000082B40F03C8205232078EB7210F060030C
:1013400040F0278263780B2B00F2BD81DFE813F0B9
:101350000201C601BB016F01BB01BA000C003900DC
:10136000F300D3001D0219028B4BDA78022A1A46C9
:1013700040F2A981010640F1A68110F01F0040F063
:1013800084806088030A013B062B00F29C81DFE821
:1013900013F007005B003D009A019A0147006700C7
:1013A00010F0FF0F40F08F81A388002B40F08B815D
:1013B0007A4B1B681B68002B00F0858102A89847B8
:1013C00001900022764B9A73E288002A40F0F58162
:1013D0004821039259820392039BB3F5FA7FC0F030
:1013E000E8810423EB7263780821052B08BF6A4B60
:1013F000684802BF1A786A4B1A70FFF793FE002301
:1014000023806380A380E38004B070BD634B1B68BE
:101410009B68002B00F0578102A9C0B29847CFE724
:10142000604B1B78184310F0FF0F40F04C81A388ED
:10143000002B40F04881594B1B685B68002B00F083
:101440004281907902A9E9E7574B1B689E68002EFC
:1014500000F0398102210020937902AAB047AFE75A
:10146000504B1B78184310F0FF0F40F02C81A088E0
:10147000002840F028814C4B1B689E68002E00F02D
:1014800022819379072102AAE8E701280AD1464A76
:1014900012689668002E00F0168161889B7902AA76
:1014A000090ADBE7022840F00E816188090A00F092
:1014B0000A813D4A12689668002E00F004819B79EB
:1014C00002AACBE7344AA378D17803F07F03052939
:1014D00013703FF476AF032905D1002B3FF471AFB1
:1014E0000423D3706DE704297FF46BAF002B7FF4E6
:1014F00068AF0323F5E7284BA078DA78032A3FF496
:1015000060AF042AD8710AD100283FF45AAF0522EF
:10151000DA70254A126812689979904751E7052ACE
:101520007FF44FAF204A12680028F4D10421D9700B
:101530005368984745E76388A28813439BB2002B02
:101540007FF43FAFE388012B7FF43BAF174A019252
:10155000029336E7104BE188DA78042A35D16388A4
:10156000A28813439BB2002B7FF42BAF02297FF498
:1015700028AF00F01F0001281CD002281FD000282F
:101580007FF41FAF01220A4B1A80019315E000BFC0
:10159000E8010020C4020020CC02002098030020B3
:1015A00000300440DC02002094030020D30200201D
:1015B000DA0200208D4A138001920223C8E78B4A89
:1015C000AB7A003B18BF0123F5E7052A7FF4F9AE9B
:1015D0006288002A7FF4F5AE02297FF4F2AE00F0B3
:1015E0001F0001280AD002280FD000287FF4E9AE9E
:1015F0001B7B7E4A5B0043F00103DCE7A1885B783C
:1016000099423FF6DEAE794BBEE794F90420A388F9
:10161000002AB3BF2C212C20754903F07F03B4BFEF
:1016200001FB035300FB0313704A9B7AC9E7E3886D
:10163000002B48D16388012B27D0022B40D0002BF0
:1016400041D100F01F0002283DD12379A288002B50
:1016500039D06849C978052935D112F0800F4FF08B
:101660002C021BD0012103F07F0302FB03521B015C
:1016700003F1804303F586239172B3F8022192B2FD
:1016800042F01002A3F802219BE6C2061BD1594A80
:10169000D178032917D9137300BE92E6544902FB8F
:1016A000031201211B0103F1804303F5862391728C
:1016B000B3F8062192B242F02002A3F8062180E698
:1016C000C3063FF47EAE0423EB7200236022238026
:1016D0006380A380E380484B5A8295E6E388002B21
:1016E000F1D1444BDA78032AEDD9618801292BD056
:1016F00002293FF466AE0029E5D100F01F00022860
:101700007FF45FAE2379A288002B3FF45AAE12F02B
:10171000800F4FF02C021DD003F07F0302FB035219
:101720001B0103F1804303F586239172B3F8022174
:1017300022F010021204120CA3F80221B3F80221C5
:1017400092B242F040029DE710F01F007FF439AEE4
:10175000187336E6264802FB03021B0103F180439F
:1017600003F586239172B3F8062122F020021204B9
:10177000120CA3F80621B3F8062192B242F08002BF
:101780009BE762881B4B1A721BE61C4B01930123DB
:10179000DEE6202B97D11A4B1B68DB68002B92D01A
:1017A000204602AA01A9984701288CD109E600BE6B
:1017B00089E7039B013303930EE640225A8294F992
:1017C00000300198002B0DDA0623EB7200B900BE41
:1017D000E388029A934238BF0293DDE90101FFF7E3
:1017E00081FD11E607230299EB729AE5DA020020E7
:1017F0000C010020CC02002000300440D402002064
:10180000940300202DE9F04305462D489DF81CC0A7
:1018100084799DF820E09DF824809DF82860DDF80B
:101820002C9044B9701EC0B2022819D8254C34F847
:10183000100001240BE0012C15D1012E16D0B01E92
:10184000C0B2022832BF40204FF4007000249842FA
:1018500003D3934201D8012C28D000BEBDE8F08309
:101860004FF40070F3E74FF40070E2E7344640F2C3
:10187000FF30ECE700FB057044702C246C433819F2
:1018800003810023428000F108023D5580F814C016
:1018900080F806E080F80780818053800673C0F8E6
:1018A00010908361BDE8F04300F0ECB8B2EB430F59
:1018B0004FF02C00044FDDDA002400FB0570DBE75D
:1018C000CC02002018330000E80100202DE9F0438D
:1018D00005462D489DF81CC084799DF820E09DF8B0
:1018E00024809DF82860DDF82C9044B9701EC0B2A9
:1018F000022819D8254C34F8100001240BE0012CE3
:1019000015D1012E16D0B01EC0B2022832BF402021
:101910004FF400700024984203D3934201D8012C65
:1019200028D000BEBDE8F0834FF40070F3E74FF419
:101930000070E2E7344640F2FF30ECE700FB057050
:1019400044702C246C43381903810023428000F139
:1019500008023D5580F814C080F806E080F8078042
:10196000818053800673C0F810908361BDE8F04316
:1019700000F0D8B8B2EB430F4FF02C00044FDDDA83
:10198000002400FB0570DBE7CC02002018330000C8
:101990000C0100202C2310B4094C03FB0043C3E9C5
:1019A000061200211962996222B11989914294BFED
:1019B00059625A622C2303FB004010BC00F038B976
:1019C0000C01002070B488B900BE01B900BE00BE91
:1019D00070BC7047032906D119894C43944294BFC7
:1019E0005C625A621BE0012919D1F5E70029EDD0AC
:1019F0002C2646430D4DAB19C3E9061200215C7835
:101A000019629962197B012C14BF01240224022956
:101A1000A855DFD159888A4294BF5A6259622C2353
:101A200003FB005070BCFFF78BB800BFE80100203B
:101A30000021032210B54FF480140F4B01281970B8
:101A40000E4B83F87F200E4A9972C2F880411460D1
:101A50004FF40014C2F8804114601981DA8822F032
:101A600001024FEA02424FEA1242DA8002BF5A787C
:101A700002F0DF025A7010BDB003002000300440B5
:101A800000E100E003781B0103F1804303F58623A6
:101A9000B3F8022122F004021204120CA3F802216E
:101AA000B3F8022122F010021204120CA3F8022152
:101AB000B3F8022122F020021204120CA3F8022132
:101AC000027B022A16D0032A07D0012A28D1B3F8B4
:101AD000022192B242F4804205E0B3F8022122F4DE
:101AE00080421204120CA3F80221B3F80221C2F3BF
:101AF0000E0211E0B3F8022122F480421204120C0B
:101B0000A3F802218279012A08D1B3F802216FEAF1
:101B100042426FEA524292B2A3F80221FFF7BAB8EA
:101B200000BEFBE703781B0103F1804303F5862326
:101B3000B3F8062122F004021204120CA3F80621C5
:101B4000B3F8062122F040021204120CA3F8062179
:101B5000B3F8062122F020021204120CA3F8062189
:101B6000027B022A2DD0032A14D0012A41D1B3F8D6
:101B70000621C2F30E02A3F80621B3F8062192B2A1
:101B800042F48042A3F80621B3F8062192B242F44F
:101B9000805212E0B3F8062122F480421204120CA3
:101BA000A3F80621B3F8062192B242F48052A3F8BA
:101BB0000621B3F80621C2F30E02A3F80621FFF7AF
:101BC00009B9B3F8062122F480421204120CA3F8DA
:101BD0000621B3F8062122F480521204120CA3F855
:101BE0000621B3F806216FEA42426FEA524292B2EE
:101BF000E3E700BEE3E700000023044A9373538247
:101C0000D3889BB243F00103D38070470030044077
:101C1000C37A042B03D10022044B1A70704703F0DF
:101C2000FD03052BFAD10222004BF6E7B00300209A
:101C300001782F4B10B543F8210001232D4A8B402A
:101C4000148923439BB213818379012B38D1836993
:101C50009B0700D500BEC379816902EB0312C2F86D
:101C600008121C010378017B1B0103F18043022948
:101C700003F5862325D1B3F8061189B241F400613A
:101C8000A3F80611B3F806116FEA41416FEA51411A
:101C900089B2A3F80611B3F8061189B241F40051D4
:101CA000A3F80611C369C2F80C324BB104F18043AA
:101CB00003F58623D3F8042242F00102C3F804227C
:101CC00010BDB3F80621C2F30E02A3F80621B3F843
:101CD000062122F400621204120CA3F80621B3F8C4
:101CE000062122F400521204120CA3F80621E7E7A1
:101CF000B403002000300440037870B51BBB816939
:101D000079B1037B6BB9426A144CC2F38F05AB42C5
:101D10001AD322F003039A421BD8036A82621A4440
:101D20000262C37A062B02BF01220D4B1A70D0E962
:101D300007329A4228BF0A23084A3EBF538A9BB201
:101D400043F00203538270BD51F8236001332662D1
:101D5000DDE7CD5C013384F82050DCE7003004403F
:101D6000B0030020002373B5184AADF80630937312
:101D70000378FBB98169E9B10C46138B03F07F034B
:101D8000ADF80630BDF806309DB2C3F38D0301EB0C
:101D900083039C4210D10D4A25F003039D420FD8C6
:101DA000BDF806309AB2036A13440362BDF80630E8
:101DB0009BB2836202B070BD166A44F8046BE8E718
:101DC00092F82040CC540133E8E700BF00300440D3
:101DD0000022024B01201A70704700BFDD02002074
:101DE000002070470120704710B501240A4B0322E0
:101DF0001C60002386B0CDE90323CDE901334023E5
:101E000020461A464FF400710094FFF7FBFC204671
:101E1000024B1C7006B010BD2C000020DD0200201B
:101E2000012908B504D90120FFF752F9012008BDA6
:101E30000122014B1A60F9E72C00002048B9022961
:101E400004D129230B484170136070470729F8D04B
:101E5000704701280BD1222903D13423064813608F
:101E60007047212903D109230448136070470020DB
:101E7000EEE700BF300000205900002042000020A3
:101E80000120704710B5084B0A461C780023012C2E
:101E900007D106490B6001462046FFF793FD204617
:101EA00010BD1846FCE700BFDD0200202C0000201A
:101EB00010B5064B02461C78012C05D1204604497A
:101EC000FFF768FD204610BD0020FCE7DD02002082
:101ED000DE020020084B10B51C68012C09D1192026
:101EE000FFF7E6FF00F014FE2046FFF7FEF820465D
:101EF00010BD0020FCE700BF28000020014B18782F
:101F0000704700BF2C000020024B18700248FFF7FA
:101F1000D9B800BFC80300209000002010B5064CBF
:101F20000146236833B1054A106898470023044AE4
:101F30002360137010BD00BF0003002010030020B9
:101F40001D0300200C4B13B50246186820F0040056
:101F50001860586800F0010001900020019C0CB14D
:101F6000884201D102B010BD145C01301C615C6874
:101F700004F001040194F1E700600140024B1B688A
:101F800003B11847704700BFF802002008B5084B9E
:101F90001B7863B1074B188880B2FFF7BFFF064B71
:101FA0001A6842F001021A601A68D207FCD408BD10
:101FB0001D0300201803002000600140F8B57B4B92
:101FC0005D689A68EDB21540AA076FD5784C1B6919
:101FD0002278D8B2052A00F28B80DFE802F0036590
:101FE000651C2F5E1B0461D5F12802D0FFF7C6FFE8
:101FF0005CE000266F4B704A1E8011681A8892B20E
:1020000088541A88013292B21A801B889BB2CE542F
:10201000042323704AE01F0448D5684B1B7898427C
:10202000E4D10023634A64491380138809689BB292
:10203000C854138801339BB21380E9E71E04D5D43A
:102040005C4E5D4B3288196892B20A4412F8013C2A
:10205000F12B33460BD133889BB2C85433889BB2E3
:102060000B4413F8010CFFF789FF0023D1E73288F6
:10207000534E92B23688B24206D21A8892B288542F
:102080001A88013292B21A801A8892B296420DD101
:10209000188880B2FFF742FFE7E71904A6D4464B41
:1020A0001B6858700220F5E71A049FD4EB071ED571
:1020B0003F4C23782546022B24D0052B40D0012B02
:1020C0006AD1404D2B889BB2002B34D03E4F2988DB
:1020D0003E6889B23046FFF735FF2B889BB29842A5
:1020E00008D22B881B1A9BB230442B803860F8BD75
:1020F0000020CFE700232B80344B1B68CBB1022399
:102100002370F4E7314D2B68ABB1314E296830684C
:10211000FFF718FF2B68984206D22B681B1A2B601A
:10212000336818443060E2E7204A936823F00103E3
:1021300093600323E4E700BEBDE8F840FFF726BF45
:10214000224C236873B9234B1B68ABB120489847D6
:102150002060236833B9154A936823F00103936024
:1021600003232B7023685BB9104A936823F00103A3
:10217000936003232B70BAE700BEFFF707FFF1E778
:10218000134D21682868FFF7DDFE23681B1A2360C2
:102190002B6818442860AAE7044A0020936823F0BB
:1021A00001039360FFF7BAFE0023A9E70060014036
:1021B0001C0300201803002010030020FC02002054
:1021C0001A030020FE020020080300200403002060
:1021D0000C0300201403002070B501241D4EB2F53D
:1021E000803FC6F8CC411C4CE56825F4E005E5606D
:1021F000C6F8C4314FF000066060A160E5684FEAA0
:1022000015454FEA0545E560144D2E7017D8E36873
:1022100092B21A43E2602E614FF00062E36843F429
:10222000E003E3600E4B1A604FF080521A60012207
:10223000084BC3F8C0210022C3F8CC2170BDA2F521
:10224000803201F5803100F580302A61E960A860B4
:102250002B75E1E7000028420040014020030020E8
:1022600000E100E0684620F007018D4619B5012025
:102270000A4B0B4CC3F8800A226942B1D4E902012F
:10228000237DFFF7A9FFBDE81940854670476368C5
:102290002070002BF7D09847F5E700BF00002842D8
:1022A00020030020684620F007018D46174B31B50A
:1022B0001B68DA0516D5164C62686AB1154DD5F85B
:1022C000081211B1022020709047D5F80C321BB1D2
:1022D000032063682070984701220E4BC3F8C82181
:1022E000C3F8802A094B1B68DB040BD50420084B7C
:1022F00018705B6803B198470122064BC3F8C821E8
:10230000C3F8902ABDE8314085467047004001403F
:1023100020030020000028421F2810B501D900BE6C
:1023200010BD0122064C8240D4F8883001F0010132
:1023300023EA020301FA00F01843C4F88800EFE72B
:10234000003001404FF602020B4BD3F84C11914282
:102350000BD1D3F8982042F48072C3F89820D3F8B8
:10236000982022F08062C3F89820044A536943F40D
:1023700000735361FEF75EB80080034000ED00E09B
:1023800064220A4B4FF49670DA60094A5A60C822F8
:102390001A814FF4A472C3E905024FF601721A8044
:1023A00000229A704FF4FA721A61704730040020CC
:1023B000400064004FF448420F4B4FF480211A60F4
:1023C00040F6C4120D4B1A600D4AB2F90430980061
:1023D000B1FBF0F10B480160B2F906105943B2F9B4
:1023E00008304B4308499B00B1FBF3F307490B60EE
:1023F00004231377704700BF24040020D803002073
:1024000030040020FC030020001C4E0EE0030020DE
:102410004FF47A6104221B4B4FF4E160C3E90012D0
:1024200040F628224FF0140CC3E90202164A17485E
:10243000C3E904C24FF47A72154BC3E900219A60D4
:102440001E214FF49672C3E903125A614FF40052F1
:10245000C3E906220F4AC3E90802072283F82820AD
:1024600040F2D5220C4B1A6042F210720B4B1A60EC
:102470000B220B4B1A7005220A4B1A7002220A4BD0
:102480001A70704704040020C05DFE06050032008B
:102490006C040020C8000100D403002028040020A0
:1024A00000040020BC040020DC0300204FF4C873AB
:1024B00030B5224D4CF25031EA8A40F29E405A43E8
:1024C0001F4BB3FBF2F31F4A1B0113602A691E4B1B
:1024D00094B2B1FBF4F1484319601C4B800A1860B8
:1024E0002868AB883C254343B3FBF5F3B1F5867F01
:1024F000174D4FEA82029BB219DB86214B43B3FB97
:10250000F2F22A604FF08062B2FBF0F2114B92B20D
:102510001A60114B02091A600A235C430F4B104AE0
:102520001C60104BB3FBF0F39BB2136030BD8529E8
:10253000CCBF4FF486714FF4C971DFE7040400206B
:1025400000404B4C68040020E80300201C040020DD
:10255000D4030020E4030020B8040020EC03002092
:10256000F00300207C3D0A0010B5084C00212068D3
:10257000AC30FDF7BDFF00BF00BF00BF20680121E8
:10258000BDE810409430FDF7B3BF00BFC404002085
:1025900010B50A4C002120689430FDF7A9FF00BF58
:1025A00000BF00BF20680121AC30FDF7A1FF002370
:1025B000034A1360034A136010BD00BFC404002027
:1025C000C0040020C804002010B5084C0121206878
:1025D000B830FDF78DFF00BF00BF00BF20680021AD
:1025E000BDE81040B830FDF783BF00BFC404002031
:1025F00008B5034B1868B030FDF77CFFC0B208BDCA
:10260000C40400204FF04052024B014602481A60B9
:10261000FDF76EBFC40400209000003038B54FF0C5
:1026200040531F4C1F482360FDF764FF21461E4A9C
:1026300000281268B8BF404242431C4D120B2B6861
:102640000868D3EB822248BF02F2FF3203EBA223D9
:102650002B60002B164AB8BF03F2FF339B1200F623
:10266000140014465364FDF745FF40F2FE62002853
:10267000B8BF404242434FF6FF70B2FBF0F20D4943
:102680000B68D3EB822248BF02F2FF3203EBA22396
:102690000B60002BB8BF03F2FF339B12A36438BD5D
:1026A000C404002018090030B8040020C004002031
:1026B0006C040020C80400204FF0405370B56C4DEE
:1026C0006C4CA9686C482360FDF712FF2068E9682C
:1026D0005430FDF70DFF206829695830FDF708FFD9
:1026E0002068642669695C30FDF702FF206829696B
:1026F0006030FDF7FDFE206869696430FDF7F8FE83
:10270000206895F926109030FDF7F2FE20685B4BAB
:1027100074301968FDF7ECFE594A2B68116820687F
:1027200059437830890AFDF7E3FE564B2068196853
:102730009830FDF7DDFE206895F828109C30FDF7F5
:10274000D7FE298C2068C1EB0141B1FBF6F1A03026
:10275000FDF7CEFE698C2068C1EB0141B1FBF6F1BB
:10276000A430FDF7C5FE484BA98C1B682068C1EB5F
:102770000141B1FBF3F1A830FDF7BAFE2068042156
:10278000B430FDF7B5FE414B206819682030FDF7E5
:10279000AFFE20684FF4C0312430FDF7A9FE3C4B5A
:1027A000206819683430FDF7A3FE20681121FDF779
:1027B0009FFE206801213830FDF79AFE2068002135
:1027C0003C30FDF795FE334B206819684030FDF72B
:1027D0008FFE20684FF4C2510430FDF789FE206857
:1027E0004FF4C6510830FDF783FE20684FF4CA51FC
:1027F0000C30FDF77DFE20684FF4CE511030FDF710
:1028000077FE2068A96900F51260FDF771FE206867
:10281000E96900F62410FDF76BFE206840F2D5212F
:1028200000F62810FDF764FE206842F2107100F6F1
:102830002C10FDF75DFE20680B2100F51360FDF7FD
:1028400057FE2068052100F63410FDF751FE206880
:10285000022100F63810FDF74BFE0F4A6B68116835
:1028600020685943BDE87040890A7030FDF740BECA
:102870006C040020C404002050000030EC03002051
:10288000F0030020D403002004040020680400208A
:10289000E80300201C040020E4030020054B064A46
:1028A0001A60064AB2F90410D368594341430448F8
:1028B000FDF71EBEC40400200010003030040020CC
:1028C0000817003008B5084A084B09481A60FDF798
:1028D00011FE4FF47A7343434FF6FF70B3FBF0F3EE
:1028E000044A536308BD00BF00100030C404002038
:1028F000101800303004002038B54FF040530B4C16
:102900000B4D0C4A236011686B680B485943890AC8
:10291000FDF7EEFD094A2B68116820685943BDE8B0
:102920003840890A7830FDF7E3BD00BFC4040020B9
:102930006C040020E403002070000030F00300204D
:1029400038B5474D474C484B696948482360FDF707
:10295000CFFD2068A9695C30FDF7CAFD2068696970
:102960006030FDF7C5FD2068A9696430FDF7C0FD42
:102970002068297F9C30FDF7BBFD206841F6583167
:10298000A030FDF7B5FD20684FF4FA71A430FDF7D3
:10299000AFFD374B206819682030FDF7A9FD20688E
:1029A0004FF4C0312430FDF7A3FD4FF47A73296949
:1029B0002068C1EB0141B1FBF3F100F5E260FDF7E6
:1029C00097FD2C4B206819683430FDF791FD206885
:1029D0001121FDF78DFD206801213830FDF788FDBC
:1029E000206800213C30FDF783FD20684FF4C25180
:1029F0000430FDF77DFD20684FF4CA510830FDF723
:102A000077FD20684FF4C6510C30FDF771FD20684A
:102A10004FF4CE511030FDF76BFD2068164B00F5DA
:102A2000E0601968FDF764FD2068144B00F2047043
:102A30001968FDF75DFDB5F90430E9682068594370
:102A400095F9013000F5E1605943FDF751FD20682B
:102A500095F9001000F20C70BDE83840FDF748BD54
:102A600030040020C4040020001000305810003052
:102A700024040020D8030020E0030020FC030020F1
:102A800008B5FFF7C5FCFFF711FDFFF779FCFFF76D
:102A900091FCFFF711FEBDE80840FFF751BF0000B1
:102AA000002110B5084686B0FFF736FC1548FEF742
:102AB00003FB0020FFF728FA0020FEF7DFFA0124CD
:102AC000002303224FF48071CDE903232046CDE992
:102AD0000133402219230094FEF7F8FE0A4A2046EB
:102AE00013899BB243F002031381FEF7FEFA2046DE
:102AF000FEF7EEFA19222046044906B0BDE8104060
:102B0000FEF748BFD000002000300440DE02002065
:102B100038B5A74B1A78122A18D8DFE812F013003C
:102B200031004E0063006B0017007700D1001C01DC
:102B300023012B014501170059016501C20118024B
:102B4000450278025B7813B1012B10D038BD994B48
:102B500093F92720002AF9D1012283F827204FF08A
:102B60004052954B1A60BDE83840FFF7FDBC934AD0
:102B700092F902100029E9D193708F4B904AF1E746
:102B80005B785BB1012BE1D18C4B93F90220012AD8
:102B9000DCD100229A70884B894A09E0854A92F973
:102BA00027100129D2D182F827304FF04052824BB2
:102BB0001A60BDE83840FFF7EBBC5B7853B1012BDE
:102BC000C4D1FF224FF0FF307C4B5A70BDE8384033
:102BD000FFF764BE0120774B83F82600BDE838403C
:102BE000FFF710BD58780028F5D00128AED1734BFF
:102BF0005870EBE75B782BB1012BA7D1BDE83840CB
:102C0000FFF7BEBBBDE83840FFF702BC5A785AB3A5
:102C1000012A4AD106226B4B1A70684A1178B2F920
:102C200006005970D188D870090A9970D168080ACD
:102C3000597111691871D971080A516998715972DD
:102C4000080A91691872D972080A91889872090A5B
:102C5000B2F904001973B2F9081012895873120AF4
:102C60009A73D973002217E00621564B5148197008
:102C700041685A700C0C9C7019710C0A0168DC7068
:102C8000080A58719971DA711A725A729A72DA7264
:102C90001A735A739A73DA731A745A749A74DA74C8
:102CA0001A755A759A75DA751A76FFF727F9012899
:102CB0007FF44CAFBDE8384019214248FFF7E2B835
:102CC0005A78002A31D0012A7FF440AF3A4A3C4971
:102CD00018791160394AD9781170597901EB0021BE
:102CE000D1809879D97901EB0021D160187A597A8D
:102CF00001EB00211161987AD97A01EB0021516131
:102D0000187B597B01EB00219161987BD97B01EB0A
:102D100000219180197C5B7C03EB01231381FFF779
:102D200049FBBDE83840FFF70BBE4FF04051224A47
:102D300098781160DA781F49120202EB0042187984
:102D400002444A605A799B7903EB02230B60BDE889
:102D50003840FFF7D1BDD9781B4A11709A781B4BC8
:102D60001A70F3E60922174B1A7000225A700F22CC
:102D70009A709AE70A23134C2370FFF74FFC0D4B10
:102D80005A6C9B6C110AA2701A126170E270237166
:102D9000FFF7B4F8012803D119212046FFF772F894
:102DA00000BF00BF00BFD1E60B22064B1A707CE7C4
:102DB000DE0200206C040020C40400203004002047
:102DC0000010003038030020B1000020B0000020C7
:102DD0005B78002B7FF4BAAE4FF04052944B1A60F0
:102DE000BDE83840FFF7F0BB5A78002A7FF46BAF9C
:102DF0004FF040518E4AD878116019798D4A01EB15
:102E0000002111615879997901EB00215161D8793C
:102E1000197A01EB00219160587A997A01EB00212F
:102E2000D160D97A187B82F82810597B01EB0021F8
:102E30009184987BD97B01EB00215184187C597CCB
:102E400001EB002111847C49097879B9987CD97CFF
:102E500001EB00219161197D5B7D03EB0123D361BF
:102E6000FFF724FBBDE83840FFF726BC012912D14B
:102E7000987CD97C01EB00215185187D597D01EBAF
:102E800000219161987DD97D1B7E01EB0021D161EC
:102E900082F83030E4E70229E2D19A7C674B1A705D
:102EA000DEE7597809B10129B3E60F22644B1A70A5
:102EB000614A597010785F4A98701469250A1C712C
:102EC0005469DD709C71250A94685D711C72250A35
:102ED000D468DD719C72250A92F828405D72DC721C
:102EE000948C250A5C73548C1D73DC73250A148C36
:102EF0009D73250A1D745C7458B99169D2690C0AD6
:102F0000D974110A9C7419755A759875D875187604
:102F1000CBE601280ED1518D080AD97491699874B5
:102F20005975080AD1691875080A92F83020987501
:102F3000D975B9E602287FF4B8AE404AD974127840
:102F400019759A7459759975D9751976ADE65A78C7
:102F5000002A7FF4FBAD4FF04051354A987811605C
:102F6000D978384A01EB002191821879597901EB1F
:102F70000021D182D9799879090201EB0041187AB0
:102F800001441160597A987A5160D97A01EB002195
:102F90009160187B597B01EB0021D160997BDB7B31
:102FA00003EB012313615BE75A78002A7FF4CEAD6F
:102FB0001121234B5A701A745A749A74DA741A7560
:102FC0005A759A75DA751A764FF0405219701D4984
:102FD000888A040AD870C88A9C705871040A0868E4
:102FE0001C71040C9C711872040A4868DC715872D8
:102FF0008868040AD872C86809699C725873040A00
:10300000080A1C739873D973094B1A604DE65D78F2
:10301000002D7FF44AAE1223094C2370FFF7E8FA23
:10302000FF236070A370E570257165713DE600BFF8
:10303000C40400206C0400202C040020CC030020D9
:10304000380300200404002070B5FEF757FF012864
:103050004FD10E23274C284E2370284B5B784BBB57
:10306000274D6B6B1A0AA370AB6B627023711A0A3F
:10307000EB6BE270A3711A0A2B6C62711A0AE2718F
:103080002372FFF7CBFA6B6C5A0A03EBD3735B1016
:10309000A372AB6C627223731A124FF04053E27248
:1030A0003360FFF7A5FA192160731248BDE870403C
:1030B000FEF7E8BE134D2B6A1A0AA3706B6A6270A2
:1030C00023711A0AAB6AE270A3711A0AEB6A627181
:1030D00023721A0AEB88E2715B0A6372AB795B08B0
:1030E000A372FFF7EFFB6B6B1A122373E272064BAE
:1030F000D6E770BD38030020C4040020DE020020A3
:103100006C040020300400200010003002233C4CEE
:103110003C4D80B523702E46FFF7B2FCFFF7C0FC94
:10312000394FDFF8F4902378002BFCD12B7873BB58
:103130004FF040533548C9F80030FDF7DBF900285F
:10314000DFF8D880B8BF03308010C8F83400D9F851
:10315000000000F61400FDF7CDF90028B8BF0330D9
:103160008010C8F83800D9F8000000F62C00FDF7F0
:10317000C1F98008C8F83C00D9F8000000F6181022
:10318000FDF7B8F98008C8F84000FFF75DFF337815
:10319000012BC8D1DFF880901D4B3846C9F80030AC
:1031A000FDF7A8F94FF47A62DFF868800028D8F8B4
:1031B0001030B8BF0330C3EB034393FBF2F380102E
:1031C000C8F82000D9F80000C8F8243000F628001C
:1031D000FDF790F90028B8BF03300E4B80109862BD
:1031E000D9F8000000F50060FDF784F90028B8BFA9
:1031F00003308010C8F82C00FFF726FF91E700BFCE
:10320000B1000020B0000020101800302408003069
:103210000010003030040020C40400206C040020A2
:103220001223036000487047B20000200A23044ABA
:103230000B60044B00280CBF10461846704700BFB7
:10324000C4000020DC00002000230A4A30B51146EB
:103250001D46013810F8014F0133DBB22CB958007C
:103260000323C0B208704B7030BD9470D570023229
:10327000F0E700BF5103002010B50C46052816D812
:10328000DFE800F003070D0F1113042309480B605A
:1032900010BD0948FFF7D8FF20600848F8E7084844
:1032A000F8E70848F6E70848F4E70848F2E700239B
:1032B0000B60F2E7E60000201E33000051030020FF
:1032C0002C33000038330000403300004533000049
:1032D00070B500260C4D0D4C641BA410A64209D1FC
:1032E00000F036F800260A4D0A4C641BA410A642D2
:1032F00005D170BD55F8043B98470136EEE755F807
:10330000043B98470136F2E7683300006833000059
:10331000683300006C3300000004000200044D69B3
:1033200063726F73656D6920496E63004D5343434B
:103330005F55736248494400484944313233340090
:103340004346473000496E746572666163653000BC
:10335000F8B500BFF8BC08BC9E467047F8B500BF82
:10336000F8BC08BC9E467047D5040000B1040000BC
:10337000E50F0000550F000005130000311200009A
:1033800095110000250F000045110000290F0000D5
:10339000490F0000000000000100000001000000D3
:1033A00009022900010104C03209040000020300DF
:1033B00002000921100100012234000705810330B9
:1033C00000030705010319000805010902A101090D
:1033D00001A10005091901290315002501750195B1
:1033E0000381027505950181010501093009310943
:1033F000381581257F750895038106C0C00000003F
:10340000E91D0000D11D00003D1E0000E11D00006F
:10341000211E0000D51E0000E51D0000811E0000D9
:1034200002021201000200000040141515200030B5
:10343000010203010A060002000000400100000032
:10344000213200002D320000793200000A0600020D
:103450000000004001000403090400000000000017
:040000030000019167
:00000001FF
